:100000000C9434000C9446000C9446000C9446006A
:100010000C9446000C9446000C9446000C94460048
:100020000C9446000C9446000C9446000C94460038
:100030000C9446000C9446000C9446000C94460028
:100040000C9446000C9446000C9446000C94460018
:100050000C9446000C9446000C9446000C94460008
:100060000C9446000C94460011241FBECFEFD8E03C
:10007000DEBFCDBF11E0A0E0B1E001C01D92A43011
:10008000B107E1F70E9484010C94E3030C94000093
:100090009C018FEF8AB921303105D1F12230310531
:1000A00031F12330310509F443C02430310509F41E
:1000B00041C02FEF80E09BE40197F1F764307105B8
:1000C00009F440C065307105A4F461307105A1F1F7
:1000D0006230710544F16230710509F43FC063304C
:1000E0007105C9F183E084B982E085B9089522EFF2
:1000F000E1CF6730710549F1683071055CF0683017
:100100007105E9F06930710569F72F792BB9089508
:1001100021EFD0CF65307105D9F06630710511F748
:100120002F762BB90895672BE9F62F702BB9089518
:1001300024EFC0CF28EFBECF2F712BB908952F78B1
:100140002BB908952F742BB908952F772BB90895E3
:100150002F752BB908952F732BB908952F722BB9D2
:1001600008950F931F93CF93DF9300E010E0C0E951
:10017000D1E080E090E0B8010E94480024EC39E032
:10018000CE010197F1F721503040D1F70F5F1F4F9B
:100190000A30110571F71BB8DF91CF911F910F91B4
:1001A000089586B12091020130910301220F331F7F
:1001B000306E90E0969587959695879581709070B2
:1001C000282B392B309303012093020180E020502B
:1001D000304F09F0089581E0089586B12091000123
:1001E00030910101220F331F306E90E09695879574
:1001F000969587959695879581709070282B392BC9
:10020000309301012093000180E02050304F09F02D
:10021000089581E00895DF93CF93CDB7DEB7289797
:100220000FB6F894DEBF0FBECDBF29833A834B8350
:100230005C836D837E838F8398870E94BB0380EDF0
:100240000E94CB0381E00E94CB0389810E94CB03F3
:100250008A810E94CB030E94C30328960FB6F894AC
:10026000DEBF0FBECDBFCF91DF9108950F931F93D7
:10027000DF93CF93CDB7DEB760970FB6F894DEBFAC
:100280000FBECDBF29873A874B875C876D877E87F6
:100290008F87988B0E94BB0380ED0E94CB0381E087
:1002A0000E94CB030E94C3030E94BB0381ED0E9406
:1002B000CB0381E00E94D503082F80E00E94D50384
:1002C000182F0E94C30309871A87DE011196FE01C9
:1002D000399688E001900D928150E1F729813A81A9
:1002E0004B815C816D817E818F81988560960FB690
:1002F000F894DEBF0FBECDBFCF91DF911F910F915C
:1003000008950E94B20308952F923F924F925F92F8
:100310006F927F928F929F92AF92BF92CF92DF9215
:10032000EF92FF920F931F93DF93CF93CDB7DEB77A
:1003300068970FB6F894DEBF0FBECDBF8FEF8AB9B6
:1003400083E084B917B88CE088B90E94B2030E9498
:10035000B10080E08F8770E07E8760E06D8750E0BD
:100360005C8740E04B8720E0298790E0988B30E065
:100370003A870E943601298B3A8B4B8B5C8B6D8BB5
:100380007E8B8F8B988FDE011996FE01719688E027
:1003900001900D928150E1F77F84FE84ED848C847E
:1003A0009B84C984DA845524D6FE02C05524539414
:1003B000662444244394AA24BB240E94D1008130A3
:1003C000F1F10E94ED00813009F455C088E3681610
:1003D00009F47CC04FE0942E9C208C2C82943FE04A
:1003E0008322692D70E0082D10E06394FFE0EF2E6A
:1003F000ED20FD2CF294EFE0FE2283E0F82282E073
:10040000F81609F475C083E0F81609F48EC045B8F3
:1004100081E090E00E94480082E090E0B8010E94F4
:10042000480083E090E06E2D70E00E944800FF20BD
:1004300009F096C177240E94D100813011F608940A
:10044000A11CB11C83E0A816B10409F0BACFC9827F
:100450002E823D82DA8296014B815C81632D722D62
:100460008F8198850E940B01AA24BB240E94ED0075
:10047000813009F0ABCFA114B10409F45CC081E074
:10048000A816B10409F4E3C082E0A816B10409F08B
:100490009DCFE39489E08E1510F4F394EE2455205B
:1004A00009F417C181E0F81609F447C19E2D906444
:1004B0008F2D8295807F892BD72CD294DD0CB0EEC6
:1004C000DB22D82A88E3681609F084CFA114B1048E
:1004D00009F46CC02FE0922E9C208C2C82949FE01B
:1004E0008922692D70E0082D10E089E3682E7ECF07
:1004F000552009F045C0772480E0842985B981E042
:1005000090E00E94480082E090E0B8010E9448001C
:1005100083E090E06E2D70E00E94480084E090E05F
:100520006F2D70E00E94480048CF77247394FF2419
:10053000F39482E0E2CF552009F06FC082E18D157F
:1005400008F4DAC02F2C3E2CFF2009F0ABC0EE20BF
:1005500009F0A8C02224239452E0352E772432E5F6
:10056000C9822E823D823A832C2D4B815C81632D82
:10057000722D8F8198850E940B015524539426CFAC
:10058000842D826085B981E090E00E94480082E07D
:1005900090E0B8010E94480083E090E06E2D70E08A
:1005A0000E94480077247394FF2407CF7F86FE863D
:1005B000ED868C869B86C986588ADA869601492DF7
:1005C000582DB701872D952D0E943601298B3A8B26
:1005D0004B8B5C8B6D8B7E8B8F8B988FDE0119968E
:1005E000FE01719688E001900D928150E1F7C98477
:1005F0005888DA8481E04826CC2009F45FC0BFE047
:100600009B2E9C208C2C8294AFE08A22692D70E076
:10061000082D10E066246394E9CE772019F581E077
:10062000F81609F47CC03F2D3295307F3E293F7388
:10063000C9822E823D823A832C2D4B815C81632DB1
:10064000722D8F8198850E940B015524BFCE939403
:1006500089E0891508F448C0C82CC29400EFC02274
:10066000C928B4CE81E0F82289E08E1508F44CC088
:10067000E2E03E2E3E0C2F2C2394C9822E823D8236
:10068000322D3295307F33293F733A832C2D4B81A5
:100690005C81632D722D8F8198850E940B017724D8
:1006A000552494CE922D9295907F832D8064372D82
:1006B0003295330F307E382B392B52CF0E94B10048
:1006C0009924882460E070E000E010E066246394E0
:1006D0008DCE82E0F81649F1DF2CD294A0EFDA2219
:1006E000DE288FE3D82272CE839485E0881588F4C3
:1006F00088249924CC246ACE2F2C2A946EEF362E8F
:100700003E0C7724739420CFF39476EF372E3E0C73
:10071000B2CFC82CC29410EFC122992457CE82E0E8
:10072000E81609F080CF30E083CF83E08E1560F4C7
:100730007724FF24EE24DD2449CE82E08E1550F488
:10074000FF24EE24E394B2CEF0E2DF2EDE288FE326
:10075000D8223CCE82E0E81609F0A8CE7F24A6CEAF
:100760007724DCCE1092B90088E48093B80084E04E
:100770008093BC00089584EA8093BC008091BC0003
:1007800087FFFCCF089584E98093BC0080E991E065
:100790000197F1F708958093BB0084E88093BC0033
:1007A0008091BC0087FFFCCF08958295880F880F49
:1007B000807C84688093BC008091BC0087FFFCCF64
:0A07C0008091BB000895F894FFCF6C
:00000001FF
