:100000000C9434000C9446000C9446000C9446006A
:100010000C9446000C9446000C9446000C94460048
:100020000C9446000C9446000C9446000C94460038
:100030000C9446000C9446000C9446000C94460028
:100040000C9446000C9446000C9446000C94460018
:100050000C9446000C9446000C9446000C94460008
:100060000C9446000C94460011241FBECFEFD8E03C
:10007000DEBFCDBF11E0A0E0B1E001C01D92A43011
:10008000B107E1F70E9410020C94A3030C94000046
:100090009C018FEF8AB921303105D1F12230310531
:1000A00031F12330310509F443C02430310509F41E
:1000B00041C02FEF80EA9AE50197F1F764307105AE
:1000C00009F440C065307105A4F461307105A1F1F7
:1000D0006230710544F16230710509F43FC063304C
:1000E0007105C9F183E084B982E085B9089522EFF2
:1000F000E1CF6730710549F1683071055CF0683017
:100100007105E9F06930710569F72F792BB9089508
:1001100021EFD0CF65307105D9F06630710511F748
:100120002F762BB90895672BE9F62F702BB9089518
:1001300024EFC0CF28EFBECF2F712BB908952F78B1
:100140002BB908952F742BB908952F772BB90895E3
:100150002F752BB908952F732BB908952F722BB9D2
:1001600008950F931F93CF93DF9300E010E0C0E951
:10017000D1E080E090E0B8010E94480024EC39E032
:10018000CE010197F1F721503040D1F70F5F1F4F9B
:100190000A30110571F71BB8DF91CF911F910F91B4
:1001A00008951092B90088E48093B80084E08093A9
:1001B000BC00089584EA8093BC008091BC0087FF56
:1001C000FCCF089584E98093BC0080E991E0019719
:1001D000F1F708958093BB0084E88093BC00809180
:1001E000BC0087FFFCCF08958295880F880F807C24
:1001F00084688093BC008091BC0087FFFCCF809115
:10020000BB0008951092B90088E48093B80084E0A0
:100210008093BC000895DF93CF93CDB7DEB72897C6
:100220000FB6F894DEBF0FBECDBFE22F2983232F78
:100230003A834B835C836D837E838F83988784EAC4
:100240008093BC008091BC0087FFFCCF80ED809341
:10025000BB0084E88093BC008091BC0087FFFCCF8A
:1002600081E08093BB0084E88093BC008091BC0057
:1002700087FFFCCFE093BB0084E88093BC008091B3
:10028000BC0087FFFCCF2093BB0084E88093BC00B8
:100290008091BC0087FFFCCF84E98093BC0080E99B
:1002A00091E00197F1F728960FB6F894DEBF0FBEE4
:1002B000CDBFCF91DF910895DF93CF93CDB7DEB758
:1002C00060970FB6F894DEBF0FBECDBF29873A877F
:1002D0004B875C876D877E878F87988B84EA8093B6
:1002E000BC008091BC0087FFFCCF80ED8093BB00F9
:1002F00084E88093BC008091BC0087FFFCCF81E044
:100300008093BB0084E88093BC008091BC0087FF91
:10031000FCCF84E98093BC0080E991E00197F1F77C
:1003200084EA8093BC008091BC0087FFFCCF81ED04
:100330008093BB0084E88093BC008091BC0087FF61
:10034000FCCF84EC8093BC008091BC0087FFFCCF85
:100350002091BB0084E88093BC008091BC0087FFA3
:10036000FCCF9091BB0084E98093BC00E0E9F1E010
:100370003197F1F729879A87DE011196FE013996A8
:1003800088E001900D928150E1F729813A814B81FB
:100390005C816D817E818F81988560960FB6F8941F
:1003A000DEBF0FBECDBFCF91DF91089586B1209102
:1003B000020130910301220F331F306E90E09695B9
:1003C00087959695879581709070282B392B30935F
:1003D00003012093020180E02050304F09F008957E
:1003E00081E0089586B12091000130910101220F32
:1003F000331F306E90E096958795969587959695E4
:10040000879581709070282B392B309301012093B0
:10041000000180E02050304F09F0089581E00895F8
:100420002F923F924F925F926F927F928F929F9204
:10043000AF92BF92CF92DF92EF92FF920F931F93F2
:10044000DF93CF93CDB7DEB768970FB6F894DEBFD2
:100450000FBECDBF8FEF8AB983E084B917B88CE0A7
:1004600088B91092B90088E48093B80084E0809342
:10047000BC000E94B10090E0988B80E08F8770E014
:100480007E8760E06D8750E05C8740E04B8720E02E
:10049000298730E03A870E945C01298B3A8B4B8B8D
:1004A0005C8B6D8B7E8B8F8B988FE9E02E2E312CA1
:1004B0002C0E3D1ED101FE01719688E001900D9237
:1004C0008150E1F758881F85FE848D84AC84EB84CD
:1004D000B9849A84772466246394CC24DD2444244C
:1004E00043940E94D6018130F1F10E94F2018130E3
:1004F00009F454C088E3781609F476C04FE0E42E7E
:10050000EB20AB2CA2943FE0A3226E2D70E00A2DCD
:1005100010E07394FFE08F2E8920F92CF294EFE025
:10052000FE2283E0F82282E0F81609F46FC083E02F
:10053000F81609F480C065B881E090E00E94480098
:1005400082E090E0B8010E94480083E090E0682DCE
:1005500070E00E944800FF2009F0BFC010E00E9438
:10056000D601813011F60894C11CD11C83E0C81655
:10057000D10409F0BACF9A82B9822B2D392D4B8143
:100580005C816D817E818F8198850E940B01CC24D6
:10059000DD240E94F201813009F0ACCFC114D104F6
:1005A00009F4A8CF81E0C816D10409F498C082E00C
:1005B000C816D10409F09ECF839489E0881508F00D
:1005C000A3C0FF24F3948824982D90648F2D8295E6
:1005D000807F892B912E9294990C50EE9522982A27
:1005E00088E3781609F08ACFC114D10409F43FC01A
:1005F0002FE0E22EEB20AB2CA2949FE0A9226E2DDF
:1006000070E00A2D10E089E3782E84CF862D826079
:1006100085B981E090E00E94480082E090E0B80156
:100620000E94480083E090E0682D70E00E9448003E
:1006300011E0FF2456CF862D826085B981E090E0DD
:100640000E94480082E090E0B8010E94480083E0E8
:1006500090E0682D70E00E94480011E0FF24F394C0
:1006600084E090E06F2D70E00E9448003ACF588AF5
:100670001F87FE868D86AC86EB86B9869A862B2DE3
:10068000392D4E2D5A2D682D7F2D812F952D0E94AD
:100690005C01298B3A8B4B8B5C8B6D8B7E8B8F8BAC
:1006A000988FD101FE01719688E001900D928150E2
:1006B000E1F75888B9849A846424BB20D1F0BFE064
:1006C000EB2EEB20AB2CA294AFE0AA226E2D70E0B3
:1006D0000A2D10E0772473941DCF10E0C1CFE3946E
:1006E00089E08E15E0F0BA2CB29470EFB722BE28E4
:1006F00001CF0E94B100EE24AA2460E070E000E087
:1007000010E07724739406CF81E0F81609F05CCFEF
:1007100082E0881590F4FF248824839455CFA39415
:1007200085E08A1520F4AA24EE24BB24E3CEBA2C5B
:10073000B29460EFB622EE24DDCE82E0881609F096
:0A07400043CF1F2541CFF894FFCFEF
:00000001FF
